:020000040800F2
:1000000048040020D5000008590E0008330D0008F0
:1000100000000000000000000000000000000000E0
:10002000000000000000000000000000A30E000817
:100030000000000000000000A10E0008A50E00084E
:10004000E7000008E7000008E7000008E7000008F4
:10005000E7000008E7000008E70000086501000865
:10006000E7000008E7000008E7000008E7000008D4
:10007000E7000008E700000800000000650F000826
:1000800000000000E7000008000000000000000081
:10009000E700000800000000E7000008E700000893
:1000A000E7000008E7000008E7000008E700000894
:1000B000E7000008E7000008E7000008E700000884
:1000C0000348854600F03CF80048004759100008F6
:1000D000480400200448804704480047FEE7FEE744
:1000E000FEE7FEE7FEE7FEE7110F0008C10000088B
:1000F00030B50B46014600202022012409E00D46C0
:10010000D5409D4205D31D469540491B2546954047
:1001100040191546521E002DF1DC30BDD2B201E06F
:100120000270401C491EFBD270470022F6E710B552
:1001300013460A4604461946FFF7F0FF204610BD55
:10014000064C0125064E05E0E36807CC2B430C3C2A
:1001500098471034B442F7D3FFF7B6FF9010000869
:10016000B010000810B50120400300F003F810BDE6
:100170007047000010B504494A69024202D0486144
:10018000FFF7F6FF10BD000000040140F8B50023A2
:100190000124A2E027469F403A4070D04D68022DCE
:1001A00001D0122D14D1DD08AD002D1800952D6A57
:1001B0005E07AC46F50E0F26AE46AE406546B5432B
:1001C000AC460E697546AE4065462E43009D2E62D4
:1001D0004D68012D05D0022D03D0112D01D0122D17
:1001E00016D185680326AC465D00AE46AE40654636
:1001F000B543AC46CE687546AE4065462E43866034
:1002000046680D79BE43ED06ED0F9D4035434560D0
:1002100006685F000325BD40AE46AE430D79B44687
:10022000AE07B60FBE4065462E430660C6687546EB
:10023000AE438D68BD403543C5604D68ED004BD57C
:10024000294D6E6B26436E639E08284DB6007519C6
:10025000AC46AD689E07360F0F27B740BD43052754
:100260003F07B84201D1002715E0214FB84201D124
:10027000012710E01F4FB84202D102270BE02BE00C
:100280001D4FB84201D1032705E01C4FB84201D1F0
:10029000052700E00627B7402F436546AF60184D9D
:1002A0002E684F689643FF0300D516432E606E6894
:1002B0004F689643BF0300D516436E60AE684F6823
:1002C0009643FF0200D51643AE60EE684F68964332
:1002D000BF0200D51643EE605B1C0A681546DD4080
:1002E00000D057E7F8BD00000010024000000140B8
:1002F0000004005000080050000C0050001C00508A
:100300000004014042694A4042617047002A01D01E
:100310008161704781627047014800687047000042
:100320000000002002480168491C0160704700007D
:100330000000002010B50848002401684022114345
:100340000160204600F00AF8002801D0012401E0F5
:1003500000F01CF8204610BD0020024070B5054694
:1003600009487D210024C9000068FFF7C1FE00F0A4
:100370005DFB002801D0012404E000222946501E24
:1003800000F01AF8204670BD040000200448416BBC
:10039000012211434163816B020411438163704761
:1003A00000100240C106C90E0120884001490860C2
:1003B0007047000000E100E010B500F04FFD10BDF7
:1003C000F8B50E4605007DD053480068C007C00F41
:1003D000B0420AD2504801684908490031430160DF
:1003E0000068C007C00FB04271D128784B4C80071D
:1003F00005D5E068F0218843A9680843E0602878C3
:10040000C00752D06868022817D0032818D0216886
:10041000012818D08905002959DAE168890889007E
:100420000143E160FFF778FF69680746022912D0AF
:1004300003291CD0012926D033E021688903EAE78B
:1004400021688901E7E74907E5E7FFF765FFC11B79
:100450003348814223D8E0680007800F0228F4D196
:1004600023E0FFF759FFC11B2D48814217D8E068F0
:100470000007800F0328F4D117E0FFF74DFFC11BE1
:10048000274881420BD8E0680007800F0128F4D18B
:100490000BE0FFF741FFC11B2148814201D9032036
:1004A000F8BDE0680007800FF3D11B480168C90759
:1004B000C90FB1420DD901684908490031430160B3
:1004C000006800E003E0C007C00FB04201D0012087
:1004D000F8BD2878400706D5E0680721090288435F
:1004E000E9680843E0602878000707D5E06807213D
:1004F000C90288432969C9000843E06000F016F882
:10050000E168084A0906090F515CC84006490860BD
:100510000020FFF723FFF8BD00200240001002403A
:1005200088130000741000080400002010B5184A59
:10053000D1680C20084004280BD0082810D00C28C3
:1005400010D050680004410F0120C003491C8840AE
:1005500010BD1068C00601D50E4810BD0E4810BD74
:100560000E4810BD88020E4B000F185C0902D368BC
:10057000890F491CDB0301D5084A05E01268D20641
:1005800001D5044A00E0044A5043FFF7B1FD10BD15
:100590000010024000093D000024F40000127A001F
:1005A00084100008FEB505007ED0FE4CE7680C20E4
:1005B000E66807400120000406402878C00747D0BD
:1005C000082F05D00C2F0AD101200004864206D145
:1005D000206880033CD568680028E5D038E0012019
:1005E00069680004814203D121680143216011E060
:1005F000052301221B0492049942216802D1114370
:100600002160F1E781432160216801400091206869
:1006100090432060686800280DD0FFF77DFE0090B1
:1006200005E0FFF779FE0099401A64287AD820681F
:100630008003F6D50CE0FFF76FFE009005E0FFF7B2
:100640006BFE0099401A6428F0D820688003F6D425
:100650002878800755D50923E868042F0DD00C2F82
:1006600001D1002E09D000283BD0216899430143D5
:100670002160FFF751FE064627E02168490701D5B2
:10068000002891D061681F22120291432A69120248
:10069000114361602168994301432160FFF746FFE0
:1006A000E16809060A0F00E0BBE1BF49895CC84068
:1006B000BE4908600020FFF751FE002872D120E0FB
:1006C000FFF72AFE801B0228B0D820684007F7D524
:1006D00060681F2109028843296909020843606094
:1006E0000FE02068400840002060FFF715FE064636
:1006F00004E0FFF711FE801B022897D8206840070E
:10070000F7D42878C0065FD5002F0CD0E869002800
:1007100049D02068FF21013108432060FFF7FCFD2C
:1007200006462DE0E4E02068800502D5E86900284F
:10073000A7D06068072149038843696A084360605D
:100740006068298C0002000A090608436060686A34
:10075000410B0120C003491C8840E16809060A0FCB
:100760009149895CC840914908600020FFF7F6FD77
:10077000002817D128E0FFF7CFFD801B0228A3D85F
:1007800020688005F7D56068072149038843696AB6
:10079000084360606068298C0002000A090608436B
:1007A000606011E023E12168FF2001308143216076
:1007B000FFF7B2FD064604E0FFF7AEFD801B0228FE
:1007C0009BD820688005F7D42878794E000724D577
:1007D00068690028306910D0012108433061FFF7B3
:1007E0009BFD009005E0FFF797FD0099401A022855
:1007F0007ED830698007F6D50FE0400840003061B0
:10080000FFF78AFD009005E0FFF786FD0099401A8A
:1008100002286DD830698007F6D42878400764D55F
:1008200000200290A06BC00006D4A06B0121090734
:100830000843A063012002905E480168C90511D4F5
:100840000168821511430160FFF766FD009005E025
:10085000FFF762FD0099401A642849D8554800689E
:10086000C005F5D5FF20AA680130824203D1316965
:100870000143316111E001218902002A07D00523DB
:100880001B029A4203D132690A433261EFE73269AF
:1008900082433261306988433061A86800280ED0F5
:1008A000FFF73AFD009006E0FFF736FD0099411A88
:1008B000414881421CD830698005F5D50DE0FFF72D
:1008C0002BFD009006E0FFF727FD0099411A3A48FA
:1008D00081420DD830698005F5D40298002804D0F3
:1008E000A16B012000078143A1632878800600E006
:1008F0007CE02ED53148A9694314002916D0A2689E
:1009000001210A43A260626B0A436263016A1943D0
:100910000162FFF701FD064604E0FFF7FDFC801BC6
:10092000022863D8A0688007F7D512E0A1684908BB
:100930004900A160016A99430162FFF7EDFC064698
:1009400004E0FFF7E9FC801B02284FD8A06880076D
:10095000F7D4A86A002866D00C2F4DD001263606A1
:100960000228206805D0B0432060FFF7D5FC05467B
:100970003EE0B0432060FFF7CFFC074604E0FFF7FE
:10098000CBFCC01B022831D820688001F7D4296B2A
:10099000E86AE2680843696BFD231B049A4311432C
:1009A00008430DE00010024074100008040000200D
:1009B0004010024000700040881300000000014019
:1009C000E060206830432060FFF7A6FC054604E0A5
:1009D000FFF7A2FC401B022808D820688001F7D549
:1009E00021E0FFF799FC401B022801D90320FEBD3E
:1009F00020688001F5D416E00128F8D0E0680121D4
:100A00000904EA6A014091420BD10F2189042A6B43
:100A10000140914205D1032189050840696B884254
:100A200001D00120FEBD0020FEBD0000094910B527
:100A3000401E884201D9012010BD074C606103218E
:100A4000081F00F00BFA0020A061072020610020A1
:100A500010BD0000FFFFFF0000E000E0F0B502461F
:100A60002032137E012B15D00127177602235376EF
:100A700005686C68AB687026B4430E684968264305
:100A80008024A34319436E6000688160577600207C
:100A90001076F0BD0220F0BD70B5040005D02546EB
:100AA0002035687E002802D006E0012070BD0020BD
:100AB0002876204600F00AF802206876211D20687A
:100AC00000F058FA01206876002070BD10B500686B
:100AD0000121890788420CD10648816B012211430C
:100AE0008163002211460F20FFF766FC0F20FFF7FD
:100AF00059FC10BD001002400268D36801210B436D
:100B0000D360006882685207520F062A02D002683A
:100B10000A43026000207047F8B5054604462035B8
:100B2000287E012817D001262E76022068762268BA
:100B300090687727FF23B8431B02984390600A68A8
:100B4000502A31D00EDC202A4BD006DC002A48D0B7
:100B5000102A3AD145E00220F8BD302A41D0402A7F
:100B600033D136E0602A27D0702A12D0012000034A
:100B7000121A2AD0824228D1CB684A688968206834
:100B800000F024FA206881680122920311438160F9
:100B90001BE0CB684A688968206800F017FA216872
:100BA00088683843886010E0CA684968206800F0A7
:100BB00020FA5021206806E0CA684968206800F0E1
:100BC00029FA6021206800F00CFA6E760020287661
:100BD000F8BDCA684968206800F00BFA4021206817
:100BE000F1E711462068EEE7704770B504460068EB
:100BF00001690025C9438907002915DBC168C9437C
:100C0000890711D4E91E01610120207620688069DE
:100C10008007204602D0FFF7E7FF04E000F078F8F5
:100C2000204600F076F8257620680169C943490717
:100C300017D4C168C943490713D40421C9430161CA
:100C400002202076206880698005800F204602D02F
:100C5000FFF7CAFF04E000F05BF8204600F059F807
:100C6000257620680169C943090716D4C168C943BC
:100C7000090712D40821C9430161042020762068A5
:100C8000C0698007204602D0FFF7AEFF04E000F005
:100C90003FF8204600F03DF8257620680169C943F9
:100CA000C90617D4C168C943C90613D41021C94362
:100CB0000161082020762068C0698005800F2046E9
:100CC00002D0FFF791FF04E000F022F8204600F088
:100CD00020F8257620680169C943C90708D1C16891
:100CE000C943C90704D1891E0161204600F012F8EA
:100CF00020680169C943490609D4C168C943490646
:100D000005D44021C9430161204600F011F870BDAF
:100D10007047704710B5006801218907884205D1E6
:100D2000052020210007FFF7EDFA10BD00BF10BD20
:100D30007047FEE7F0B587B014216846FFF7F5F974
:100D40002D48C16A04242143C162C16A2140059132
:100D5000C16A80252943C162C16A29400591C16ADF
:100D600001263143C162C06A00223040059005204F
:100D700020210007FFF7CAFA002280211F48FFF751
:100D8000C5FAE00200901E480027019069460297CC
:100D90001A48FFF7FBF90C20009002200190032075
:100DA000039005200297694604940007FFF7EEF9C7
:100DB00020206946C1C10520694600070397FFF757
:100DC000E5F96846E0C069460C480397FFF7DEF98D
:100DD0002002009005200197694602970007FFF75F
:100DE000D5F9002211460720FFF7E6FA0720FFF7A2
:100DF000D9FA07B0F0BD0000001002400008005012
:100E00000000211010B586B0002400940121104884
:100E100001940294039404948907059401600D4998
:100E2000846041601921046149014461C160FFF798
:100E300033FE01200003009069460548FFF76CFE71
:100E4000049404A902480594FFF708FE06B010BDFB
:100E5000080000209F0F0000704700008307FF225A
:100E6000DB0E9A408907090E994000280BDA00072B
:100E7000000F0838830808489B001818C36993437B
:100E80000B43C3617047830804489B001B18186814
:100E9000904308431860704700ED00E000E400E074
:100EA0007047704710B5FFF73DFA10BD10B594B00C
:100EB00038216846FFF739F914210EA8FFF735F9F4
:100EC000124801680322D2029143C21489180160BA
:100ED00002200121039100900A9000248005102136
:100EE0000D900B940C9404916846FFF75BFB0F2068
:100EF0000E9003200F9080201090119400211294E6
:100F00000EA8FFF75DFA14B010BD0000007000409D
:100F100010480168821511430160C1680E4A1140F2
:100F2000C16001680D4A11400160816849084900AB
:100F3000816001680122920491430160C168FD2231
:100F400012049143C160002101610549C00388601A
:100F500070470000001002400C40FF88F6FFF6FECC
:100F600000ED00E010B50248FFF73FFE10BD0000A5
:100F70000800002070B5026801239B07114C124D38
:100F8000984203D0A04201D0A84203D17026B243B8
:100F90004E683243984203D0A04201D0A84204D107
:100FA00003231B029A43CB681A4380239A430B699D
:100FB0001A4302608A68C262096881620121416144
:100FC00070BD0000000801400014014030B5846885
:100FD000FF252D021B021343AC430B4323438360C5
:100FE00030BD826870239A430A4307210A43826016
:100FF000704730B5036A046A640864000462846957
:10100000F025AC43120122430A24A3430B4382611F
:10101000036230BD30B5036A1024A34303628469C0
:10102000036A0F252D031203AC432243A024A343DC
:10103000090119438261016230BD02E008C8121F34
:1010400008C1002AFAD170477047002001E001C1B1
:10105000121F002AFBD17047FFF76CF9FFF726FF3C
:10106000FFF768FEFFF7CEFE0148FFF745FDFEE7FC
:10107000080000200000000000000000010203043E
:1010800006070809030406080C10182030000000A9
:10109000B010000800000020080000003A1000080E
:1010A000B810000808000020400400004A100008A2
:0810B000000000000000200018
:04000005080000C12E
:00000001FF
